:100000006F00801C010000001300000013000000BE
:100010001300000013000000130000001300000094
:100020001300000013000000130000001300000084
:0C0030001300000013000000730010001B
:10003C000000000000000000300200003002000050
:10004C000000000030020000000000000000000072
:10005C003002000030020000000000000000000030
:10006C003002000000000000300200000000000020
:10007C0030020000300200003002000030020000AC
:10008C00300200003002000030020000300200009C
:10009C00300200003002000030020000300200008C
:1000AC00300200003002000030020000300200007C
:1000BC00300200003002000030020000300200006C
:1000CC00300200003002000030020000300200005C
:1000DC00300200003002000030020000300200004C
:1000EC00300200003002000030020000300200003C
:1000FC00300200003002000030020000300200002C
:10010C00300200003002000030020000300200001B
:10011C00300200003002000030020000300200000B
:0C012C0030020000300200003002000031
:10013800011106CE22CC00101307403F9307403F21
:10014800B307F74089872324F4FE232604FE31A849
:100158001307403F8327C4FE8A07BA979C438297B8
:100168008327C4FE85072326F4FE0327C4FE8327BE
:1001780084FEE36FF7FC1307403F9307403FB30744
:10018800F74089872324F4FE232604FE31A81307A9
:10019800403F8327C4FE8A07BA979C4382978327E8
:1001A800C4FE85072326F4FE0327C4FE832784FEA6
:1001B800E36FF7FC01000100F240624405618280B0
:1001C8009307402397010020938141631721002062
:1001D8001301C1627D45731005BC130580087310B7
:1001E80005308D45739045801305C0034D8D731000
:1001F8005530739017349304403FB707002093801D
:10020800070009A82687930447008687938047003C
:10021800184398C3B707002093870700E3E4F0FE6C
:10022800013F7300203001000100FDBF411106C6E7
:1002380022C400084528252849289D28B7C7DB007F
:10024800138507A0B5225120B7C7DB00138507A087
:100258008522B928B7C7DB00138507A0912AB520E6
:10026800B717020613850760A1220100F9B74111EB
:1002780022C60008B717014093870780D443B717F1
:10028800014093870780370700F0758FD8C3B717E9
:10029800014093870780D443B717014093870780AD
:1002A80037070030558FD8C301003244410182809E
:1002B800411122C60008B7170140938707802167BC
:1002C800D8CB0100324441018280411122C6000886
:1002D800B717014093870780216798CB0100324404
:1002E80041018280411106C622C40008B7170240A6
:1002F80037079F0098C72528B7270240944BB72790
:100308000240370700FE7D17758F98CBB7F700E0DE
:10031800154798C3B7170240984FB717024013679D
:10032800C70398CF0100B2402244410182804111A5
:1003380022C60008B7470240938707809843B7470B
:100348000240938707801367070198C3B7170240D5
:1003580037073C00D8C3B71702409443B717024089
:1003680037070001558F98C30100B717024098431B
:10037800B7070002F98F93B7170093F7F70FF5F750
:10038800B7170240D843B717024013672700D8C3EE
:100398000100B7170240DC43B18BE117B337F00017
:1003A80093F7F70FFDF70100010032444101828005
:1003B800797122D60018232EA4FCB7F700E09C47D9
:1003C8000327C4FDBA972326F4FE0100B7F700E01F
:1003D80098478327C4FEB307F740FD8393F7F70FC9
:0C03E800F5F701000100325445618280ED
:00000001FF
