:100000006F00801E010000001300000013000000BC
:100010001300000013000000130000001300000094
:100020001300000013000000130000001300000084
:0C0030001300000013000000730010001B
:10003C0000000000000000004C0200004C02000018
:10004C00000000004C020000000000000000000056
:10005C004C0200004C0200000000000000000000F8
:10006C004C020000000000004C02000000000000E8
:10007C004C0200004C0200004C0200004C0200003C
:10008C004C0200004C0200004C0200004C0200002C
:10009C004C0200004C0200004C0200004C0200001C
:1000AC004C0200004C0200004C0200004C0200000C
:1000BC004C0200004C0200004C0200004C020000FC
:1000CC004C0200004C0200004C0200004C020000EC
:1000DC004C0200004C0200004C0200004C020000DC
:1000EC004C0200004C0200004C0200004C020000CC
:1000FC004C0200004C0200004C0200004C020000BC
:10010C004C0200004C0200004C0200004C020000AB
:10011C004C0200004C0200004C0200004C0200009B
:0C012C004C0200004C0200004C020000DD
:10013800411122C60008B707002003A70700B70728
:10014800002023A2E70081473E8532444101828096
:10015800011106CE22CC00101307002593070025B5
:10016800B307F74089872324F4FE232604FE31A829
:10017800130700258327C4FE8A07BA979C438297F2
:100188008327C4FE85072326F4FE0327C4FE83279E
:1001980084FEE36FF7FC1307002593070025B307D8
:1001A800F74089872324F4FE232604FE31A8130789
:1001B80000258327C4FE8A07BA979C438297832722
:1001C800C4FE85072326F4FE0327C4FE832784FE86
:1001D800E36FF7FC01000100F24062440561828090
:1001E8009307801397010020938141611721002014
:1001F8001301C1607D45731005BC13058008731099
:1002080005308D45739045801305C0034D8D7310DF
:1002180055307390173493040025B7070020938056
:10022800070009A82687930447008687938047001C
:10023800184398C393878180E3E6F0FE113F73006B
:08024800203001000100FDBFA0
:080250007B000000C801000062
:00000001FF
